:100000000C9462000C948A000C948A000C948A0070
:100010000C948A000C948A000C948A000C948A0038
:100020000C948A000C948A000C948A000C948F041F
:100030000C948A000C948A000C948A000C948A0018
:100040000C9445040C948A000C9413040C94ED0356
:100050000C948A000C948A000C948A000C948A00F8
:100060000C948A000C948A000000000024002700F1
:100070002A0000000000250028002B0000000000DE
:1000800023002600290004040404040404040202DA
:100090000202020203030303030301020408102007
:1000A0004080010204081020010204081020000012
:1000B0000008000201000003040700000000000027
:1000C00000004B0511241FBECFEFD8E0DEBFCDBF2F
:1000D00011E0A0E0B1E0EAEEFFE002C005900D9271
:1000E000AE33B107D9F722E0AEE3B1E001C01D9213
:1000F000A732B207E1F710E0C2E6D0E004C02197D2
:10010000FE010E94ED07C136D107C9F70E94D30551
:100110000C94F3070C940000AF92BF92CF92DF9241
:10012000EF92FF920F931F93CF93DF936C017B01AC
:100130008B01040F151FEB015E01AE18BF08C0173D
:10014000D10759F06991D601ED91FC910190F081B0
:10015000E02DC6010995892B79F7C501DF91CF9173
:100160001F910F91FF90EF90DF90CF90BF90AF90D5
:100170000895FC01538D448D252F30E0842F90E0AD
:10018000821B930B541710F0CF9608950197089592
:10019000FC01918D828D981761F0A28DAE0FBF2F5B
:1001A000B11D5D968C91928D9F5F9F73928F90E0B1
:1001B00008958FEF9FEF0895FC01918D828D981720
:1001C00031F0828DE80FF11D858D90E008958FEF5D
:1001D0009FEF0895FC01918D228D892F90E0805C26
:1001E0009F4F821B91098F73992708958AE491E0AC
:1001F0000E94EA0021E0892B09F420E0822F089573
:1002000080E090E0892B29F00E94F60081110C9487
:1002100000000895FC01A48DA80FB92FB11DA35AA9
:10022000BF4F2C91848D90E001968F739927848F16
:10023000A689B7892C93A089B1898C918370806439
:100240008C93938D848D981306C00288F389E02DDA
:1002500080818F7D80830895EF92FF920F931F938B
:10026000CF93DF93EC0181E0888F9B8D8C8D981369
:100270001AC0E889F989808185FF15C09FB7F89475
:10028000EE89FF896083E889F989808183708064C1
:1002900080839FBF81E090E0DF91CF911F910F910C
:1002A000FF90EF900895F62E0B8D10E00F5F1F4F1B
:1002B0000F731127E02E8C8D8E110CC00FB607FC2A
:1002C000FACFE889F989808185FFF5CFCE010E94B8
:1002D0000A01F1CFEB8DEC0FFD2FF11DE35AFF4F1B
:1002E000F0829FB7F8940B8FEA89FB898081806246
:1002F000CFCFCF93DF93EC01888D8823B9F0AA8903
:10030000BB89E889F9898C9185FD03C0808186FDD0
:100310000DC00FB607FCF7CF8C9185FFF2CF80811F
:1003200085FFEDCFCE010E940A01E9CFDF91CF9189
:100330000895833081F028F4813099F08230A9F05B
:1003400008958730A9F08830C9F08430B1F48091E5
:1003500080008F7D03C0809180008F778093800024
:10036000089584B58F7784BD089584B58F7DFBCFC4
:100370008091B0008F778093B00008958091B00095
:100380008F7DF9CFCF93DF93282F30E0F901E2552D
:10039000FF4F8491F901E656FF4FD491F901EA57D6
:1003A000FF4FC491CC23A1F081110E949901EC2F41
:1003B000F0E0EE0FFF1FE458FF4FA591B491EC91D0
:1003C000ED2381E090E009F480E0DF91CF91089582
:1003D00080E090E0FACF1F93CF93DF93282F30E097
:1003E000F901E255FF4F8491F901E656FF4FD49190
:1003F000F901EA57FF4FC491CC23A9F0162F8111C0
:100400000E949901EC2FF0E0EE0FFF1FEE58FF4F16
:10041000A591B4918FB7F894EC91111108C0D095C3
:10042000DE23DC938FBFDF91CF911F910895DE2BE8
:10043000F8CFCF93DF9390E0FC01E656FF4F249175
:100440008A579F4FFC0184918823D1F090E0880F58
:10045000991FFC01E859FF4FA591B491FC01EE589A
:10046000FF4FC591D49161110EC09FB7F8948C9144
:10047000E22FE0958E238C932881E223E8839FBFAF
:10048000DF91CF9108958FB7F894EC91E22BEC9324
:100490008FBFF6CF3FB7F89480914401909145010A
:1004A000A0914601B091470126B5A89B05C02F3FFA
:1004B00019F00196A11DB11D3FBFBA2FA92F982F8A
:1004C0008827BC01CD01620F711D811D911D42E085
:1004D000660F771F881F991F4A95D1F708958F924D
:1004E0009F92AF92BF92CF92DF92EF92FF924B0119
:1004F0005C010E944A026B017C010E944A026C1955
:100500007D098E099F09683E734081059105A8F316
:1005100021E0821A9108A108B10888EEC80E83E094
:10052000D81EE11CF11C81149104A104B10429F727
:10053000FF90EF90DF90CF90BF90AF909F908F9003
:100540000895089590E080E00895CF93DF93EC0143
:1005500060E08E810E94EB0161E08E810E94EB01E0
:1005600060E08E810E94EB018BE891E00197F1F74A
:10057000DF91CF910895CF92DF92EF92FF920F9388
:100580001F93CF93DF936C017C0187E0E80EF11C91
:10059000D0E0C0E0062F10E0B8010C2E02C0759527
:1005A00067950A94E2F76170F70181917F010E94DB
:1005B000EB012196C430D10579F7C601DF91CF91C7
:1005C0001F910F91FF90EF90DF90CF900C94A502B8
:1005D000CF92DF92EF92FF920F931F93CF93DF930F
:1005E000EC01F62E642F8C810E94EB018D818F3FF0
:1005F00019F060E00E94EB010F2D10E08F8584FF61
:1006000025C06E0187E0C80ED11CF12CE12CB80189
:100610000E2C02C0759567950A94E2F76170F60199
:1006200081916F010E94EB01FFEFEF1AFF0A88E052
:10063000E816F10461F7CE01DF91CF911F910F9180
:10064000FF90EF90DF90CF900C94A502B80184E06A
:10065000759567958A95E1F7CE010E94BB026F2DD3
:10066000CE01DF91CF911F910F91FF90EF90DF901E
:10067000CF900C94BB0240E0682F8CE092E00C9489
:10068000E802CF93DF93823029F490911B029860A7
:1006900090931B0280931F021092200280E48093AB
:1006A000210280E18093220280E58093230261E0B1
:1006B000809110020E941902809111028F3F19F05F
:1006C00061E00E94190261E0809112020E94190209
:1006D000CCE0D2E09E012C50324080911B0284FD80
:1006E0000BC084E090E021962817390744F461E0BC
:1006F0008E810E941902EECF88E090E0F4CF8BE368
:100700009DE00197F1F760E0809110020E94EB01FB
:1007100060E0809112020E94EB01809111028F3FF4
:1007200019F060E00E94EB0180911B0284FD39C04A
:1007300063E08CE092E00E94BB02CBE4D6E4CE0101
:100740000197F1F763E08CE092E00E94BB022197F1
:10075000F1F763E08CE092E00E94BB0283E592E057
:100760000197F1F762E08CE092E00E94BB02809179
:100770001B0280620E943B0384E080931C028CE099
:100780000E943B0381E00E943B038BE39FE10197C2
:10079000F1F782E080931D0286E0DF91CF910C9407
:1007A0003B0380620E943B038BE496E40197F1F7E0
:1007B00080911B0280620E943B0383E592E00197D7
:1007C000F1F780911B0280620E943B03D0CF41E091
:1007D0000E94E80281E090E008951F920F920FB608
:1007E0000F9211242F933F934F935F936F937F93B7
:1007F0008F939F93AF93BF93EF93FF938AE491E01E
:100800000E940A01FF91EF91BF91AF919F918F914B
:100810007F916F915F914F913F912F910F900FBEFC
:100820000F901F9018951F920F920FB60F921124E0
:100830002F938F939F93EF93FF93E0915A01F09141
:100840005B018081E0916001F091610182FD1BC03C
:100850009081809163018F5F8F7320916401821773
:1008600041F0E0916301F0E0E65BFE4F958F8093ED
:100870006301FF91EF919F918F912F910F900FBE88
:100880000F901F9018958081F4CF1F920F920FB692
:100890000F9211242F933F938F939F93AF93BF9306
:1008A0008091400190914101A0914201B09143019A
:1008B00030913F0123E0230F2D3758F50196A11DFC
:1008C000B11D20933F018093400190934101A0937B
:1008D0004201B09343018091440190914501A09160
:1008E0004601B09147010196A11DB11D80934401BD
:1008F00090934501A0934601B0934701BF91AF91FA
:100900009F918F913F912F910F900FBE0F901F904D
:10091000189526E8230F0296A11DB11DD2CF1F9274
:100920000F920FB60F9211242F933F934F935F9323
:100930006F937F938F939F93AF93BF93CF93DF93E7
:10094000EF93FF9380913E01C0910B02D0E087FFAF
:1009500024C0109285001092840080913E018F5F28
:1009600080933E0180913E01082E000C990B8C175C
:100970009D0724F480913E018C30C4F18091840065
:1009800090918500049680349C4908F47AC0809147
:10099000840090918500049676C080913E01082ED7
:1009A000000C990B8C179D07C4F6E0913E018E2F29
:1009B000EE0F990BFC01EE0FFF1FE80FF91FE95135
:1009C000FE4F808186FFC9CFE0913E018E2FEE0F52
:1009D000990BFC01EE0FFF1FE80FF91FE951FE4FC5
:1009E000808160E08F730E94EB01B7CF209184007B
:1009F00030918500E0913E018E2FEE0F990BFC01A6
:100A0000EE0FFF1FE80FF91FE951FE4F8181928120
:100A1000820F931F9093890080938800E0913E019C
:100A20008E2FEE0F990BFC01EE0FFF1FE80FF91F41
:100A3000E951FE4F808186FF11C0E0913E018E2F6B
:100A4000EE0F990BFC01EE0FFF1FE80FF91FE951A4
:100A5000FE4F808161E08F730E94EB01FF91EF9167
:100A6000DF91CF91BF91AF919F918F917F916F91C6
:100A70005F914F913F912F910F900FBE0F901F905C
:100A8000189580E49CE990938900809388008FEF0B
:100A900080933E01E3CF10924D0110924C0188EEFD
:100AA00093E0A0E0B0E080934E0190934F01A093BB
:100AB0005001B093510184E091E090934B018093F9
:100AC0004A0185EC90E0909357018093560184ECA5
:100AD00090E0909359018093580180EC90E09093BE
:100AE0005B0180935A0181EC90E090935D018093CB
:100AF0005C0182EC90E090935F0180935E0186EC54
:100B000090E09093610180936001109263011092D4
:100B10006401109265011092660180910B028C3085
:100B2000F0F591E0980F90930B028093240290E0EF
:100B3000FC01EE0FFF1FE80FF91FE951FE4F88EB94
:100B40009BE09283818310920F0210920E0286E145
:100B500091E090930D0280930C028CE08093100240
:100B60008FEF809311028BE08093120285E08093D7
:100B7000130284E08093140283E08093150282E0E4
:100B80008093160210921702109218021092190206
:100B900010921A0210921B0281E00C9441038FEF15
:100BA00080932402D0CFCF93DF9300D01F92CDB794
:100BB000DEB7789484B5826084BD84B5816084BDDD
:100BC00085B5826085BD85B5816085BD80916E00EB
:100BD000816080936E00109281008091810082601C
:100BE0008093810080918100816080938100809159
:100BF00080008160809380008091B1008460809348
:100C0000B1008091B00081608093B00080917A0043
:100C1000846080937A0080917A00826080937A0069
:100C200080917A00816080937A0080917A00806858
:100C300080937A001092C10060E086E00E94190261
:100C400061E087E00E94190260E08DE00E941902D5
:100C500061E089E00E94190261E088E00E941902C7
:100C6000809124028C3008F053C061E08AE00E9439
:100C7000190280912402282F30E0F901EE0FFF1FA6
:100C8000E20FF31FE951FE4F9081907C9A609083B0
:100C90009EE89093250294E6909326022CE0622F22
:100CA0000E94E107829FB001112430E020E0AB01F7
:100CB000420F531FFA01EE0FFF1FE40FF51FE9511A
:100CC000FE4F908196FD16C02F5F3F4F2C303105AF
:100CD00071F781110FC01092800082E08093810033
:100CE0001092850010928400B19A80916F0082600A
:100CF00080936F00E09124028E2F90E0FC01EE0FB4
:100D0000FF1FE80FF91FE951FE4F80818064808347
:100D100061E089E00E94190278E5C72E72E0D72EC3
:100D2000E4EB8E2E912CA12CB12CFBE32F2EFFE1B6
:100D30003F2E60E0E62E60E0F62E8DE00E94C201BC
:100D4000019709F0C8C086E00E94C201019779F5B9
:100D500060E087E00E94EB0161E088E00E94EB0127
:100D600061E089E00E94EB0161E070E080E090E0EA
:100D70000E946F02E0911F02E230B8F4E150F0E00F
:100D8000E45FFD4F848980680E943B0341E150E0AD
:100D90006EE171E08CE092E00E948C0064E670E00D
:100DA00080E090E00E946F028AC0E1E0E8CF1092FC
:100DB000490110924801A0914801B0914901A53B19
:100DC000B1050CF06EC02091240229832C3008F06C
:100DD00058C0809126028601081B110987FD1395D2
:100DE000000F111F000F111F8091250228E830E02D
:100DF000281B310987FD3395220F331F220F331F24
:100E00003B832A832901330F66087708B7FF02C0A6
:100E1000B0E0A0E09801012E000C440B550B241902
:100E20003509460957090E94A807A50194010E94A7
:100E30007E07420E531E641E751E2A813B81421698
:100E400053063CF01B830A834016510614F45B8260
:100E50004A828A819B810297880F991F9B838A838C
:100E60002FB7F8943981832F90E0FC01EE0FFF1F1C
:100E7000E80FF91FE951FE4F8A819B81928381839C
:100E80002FBF6FE070E080E090E00E946F028091E1
:100E9000480190914901019690934901809348013E
:100EA0008ACF60E088E00E94EB0160E089E00E9468
:100EB000EB0181E00E943B03C1010197F1F7E114CE
:100EC000F10409F43ACF0E94F600882309F435CFE3
:100ED0000E9400002ECF61E088E00E94EB0168EEE6
:100EE00073E080E090E00E946F0260E088E00E9482
:100EF000EB014DE050E060E371E04CCF052E97FB35
:100F00001EF400940E94950757FD07D00E94B00779
:100F100007FC03D04EF40C949507509540953095FE
:100F200021953F4F4F4F5F4F089590958095709555
:100F300061957F4F8F4F9F4F08950E94D207A59FC5
:100F4000900DB49F900DA49F800D911D11240895C4
:100F5000B7FF0C949D070E949D07821B930B089579
:100F6000A1E21A2EAA1BBB1BFD010DC0AA1FBB1FAD
:100F7000EE1FFF1FA217B307E407F50720F0A21B1F
:100F8000B30BE40BF50B661F771F881F991F1A948C
:100F900069F760957095809590959B01AC01BD01B6
:100FA000CF010895A29FB001B39FC001A39F700D10
:100FB000811D1124911DB29F700D811D1124911D61
:100FC0000895991B79E004C0991F961708F0961BA5
:100FD000881F7A95C9F780950895EE0FFF1F059039
:0A0FE000F491E02D0994F894FFCF7E
:100FEA00000000002C018C00B9007901EA00C80059
:100FFA00DC0000000000E7038C00A202A102416CA1
:10100A00636F686F6C20446574656374656421005E
:0E101A0021214E6F2048656C6D657421210008
:00000001FF
